:060000000200550207108A
:03000B0002076188
:030013000207AE33
:03001B000207FFDA
:0300230002084C84
:03002B0002089B2D
:030033000208EAD6
:03003B0002093B7C
:0300430002098C23
:03004B000209DACD
:0300EE0002004EBF
:05004E001200F180FE2C
:1000F100753701902D0075F03174011205BC12069F
:10010100E41201CB90E100E4F5F0120269D29C7592
:1001110082011205F9758201120531753742758226
:100121000012054675374275820112054674F5C005
:10013100E0740CC0E0120A4115811581758200122C
:100141000649AA82AB838A378B38753900753A0024
:10015100900BBBE4F5F0C002C003120B67AD83AE98
:10016100F0FF8D04EEC313CC13CCC313CC13CCFD21
:10017100EF030354C04DFDEF0303543FE5F5900B2E
:10018100F593F518758200C004C00512058685F542
:1001910018758201120586D005D004D003D002C0A3
:1001A10004C005C002C0037413C0E0740DC0E012A6
:1001B1000A41E58124FAF5817A107B27EA4B700325
:0A01C10002013D1ABAFFF51B80F29F
:100BF50000010101010101010101010101010101E1
:100C050001010101020202020202020202020202C3
:100C150002020202020202020202020203030303AB
:100C2500030303030303030303030304040404048A
:100C35000404040404040505050505050505050565
:100C45000606060606060607070707070707080834
:100C55000808080809090909090A0A0A0A0B0B0BF9
:100C65000B0C0C0C0C0D0D0D0D0E0E0E0F0F0F10A9
:100C75001010111111121213131314141515161641
:100C85001717181819191A1A1B1C1C1D1D1E1F1FB2
:100C95002021222223242525262728292A2B2C2DED
:100CA5002E2F3031323334353637393A3B3C3E3FDF
:100CB5004142434546484A4B4D4F50525456585968
:100CC5005B5D60626466686B6D6F727477797C7F5B
:100CD5008285878A8D9194979A9EA1A5A8ACB0B478
:100CE500B8BCC0C4C9CDD2D6DBE0E5EAEFF4F9FF64
:100CF5000D0A5374617274696E67204170706C6976
:100D0500636174696F6E2D4C6F6F700D0A004144FD
:100D15002D576572743A202564203D2025646D5653
:0A0D250020202020202020200D00B7
:1001CB0075984043B0039003B81203E29003C21238
:1001DB0003E9C299C2982275C80075C90075CD0094
:1001EB0075CC0075CBFF75CAFF20B0FD30B0FDD2CA
:1001FB00CA20B0FD30B0FD20B0FD30B0FD20B0FD09
:10020B0030B0FD20B0FD30B0FDC2CAABCD7A00AC32
:10021B00CC7D00EC4202ED4203EA24FFF537EB34D0
:10022B00FFF538900003120B4AAA82E583A2E7CAB6
:10023B0033CA33A2E7CA33CA33CA5403FBE4FCFD07
:10024B00C39AFAE49BFB74019CE49D8A048CCA8BD1
:10025B00CB75CC0075CD0075984075C8342285825E
:10026B000C85830D85F00EF50F1205E6A8F08806B8
:10027B00C403CEC40354076ECE5407CE6ECEFF78A4
:10028B00007900C3E50C9EE50D9FE50E98E50F99EF
:10029B00500490FFFF221205E6AE82AF83A8F0F95F
:1002AB00C006C007C000C0011205F2AA82D001D05F
:1002BB0000D007D0068AF005F074068002C313D570
:1002CB00F0FBFA8AF005F0800DC3E913F9E813F897
:1002DB00EF13FFEE13FED5F0F0C3EE950CEF950D7B
:1002EB00E8950EE9950F500490FFFE22858F10853F
:1002FB0087111205F2E58260035310F753117F1239
:10030B0005E6850C37850D38850E39850F3A1204B5
:10031B00CCAC82AD83AEF0FFEDC4CCC4540F6CCC2F
:10032B00540FCC6CCCFDEEC454F04DFDEFC4CEC4D9
:10033B00540F6ECE540FCE6ECEFFC374FF9C74FF62
:10034B009DE49EE49F501D431180EFC313FFEE13FA
:10035B00FEED13FDEC13FCEFC313FFEE13FEED13D9
:10036B00FDEC13FCC374FF9C74FF9DE49EE49F5053
:10037B001D431008EFC313FFEE13FEED13FDEC133B
:10038B00FCEFC313FFEE13FEED13FDEC13FCE4C304
:10039B009CFCE49DFD74019EE49F8C0088CA8DCB70
:1003AB0085108F85118743C83490000022AA82C222
:1003BB00998A993099FD223098FD859982C29822AD
:1003CB0074D8C0E07403C0E0C008C0092222850ABB
:1003DB0082850B83020053858208858309228582DF
:1003EB000A85830B22AA827B00C3EB9A400302048B
:1003FB00ACC002C0031203D9AC82D003D002BC083C
:10040B0002800ABC0A02803EBC0D6A8039EB60D9BF
:10041B00151274FFB512021513AD12AE13AF148D76
:10042B00828E838FF0E4120A281B758208C002C0EB
:10043B00031203CB7582201203CB7582081203CBF8
:10044B00D003D00280A3AD12AE13AF148D828E8376
:10045B008FF0E4120A2875820DC005C006C0071282
:10046B0003CB75820A1203CBD007D006D0058D8241
:10047B008E838FF022AD12AE13AF148D828E838FCD
:10048B00F0EC120A2874012DF512E43EF5138F14CB
:10049B000B8C82C002C0031203CBD003D002020329
:1004AB00F4151274FFB512021513AA12AB13AC1488
:1004BB008A828B838CF0E4120A288A828B838CF0DD
:1004CB0022FB7A20E4FCFDFEFFE5822582F582E526
:1004DB008333F583E5F033F5F0EB33FB4017DAE9C3
:1004EB008042E5822582F582E58333F583E5F0339F
:1004FB00F5F0EB33FBEC33FCED33FDEE33FEEF337A
:10050B00FFEC9537ED9538EE9539EF953A4013ECB6
:10051B009537FCED9538FDEE9539FEEF953AFF4397
:06052B008201DABEEB22A2
:06008400E478FFF6D8FD50
:0900AE007515FF7516FF7517FFAB
:10053100AA8275D90074035A25E042D953D9FE43E2
:10054100D8408A1522AA82BA00028005BA01178012
:100551000B53DA81E53742DA8537162253DB81E521
:100561003742DB85371722AA82BA00028005BA0119
:10057100108007747E55DAF58222747E55DBF58290
:10058100227582FF22AA82C002120568AB82D002C4
:10059100BB4202800490FFFF22BA00028005BA012B
:1005A1001280088518FA43DA40800C8518FB43DB7A
:0B05B10040800490FFFE22900000221A
:100062007900E94400601B7A00900D2F780075A09A
:1000720000E493F2A308B8000205A0D9F4DAF275FD
:02008200A0FFDD
:1005BC00AA82AB83ACF0FDC3E49A742D9B74319C7E
:1005CC0074019D5003753700538FFE7401553742EB
:1005DC008F8A198B1A8C1B8D1C22851982851A8384
:1005EC00851BF0E51C227401558FF58222AA82C06E
:1005FC00021205E67537807538B975392A753A00D7
:10060C001204CCAB82C0031205F2AC82D003D00230
:10061C008CF005F0EB800225E0D5F0FBFBBB200055
:10062C005007741F5BF5F2800375F2008AF643F3F2
:10063C002022E58242F622E582F452F622AA827B3F
:10064C00007C005302078AF005F07D017E008006D5
:10065C00ED2DFDEE33FED5F0F7AFF67800EF520539
:10066C00E85206ED4E602C75F360EA42F343F30852
:10067C00741855F3FABA10F853F3BFAAF5E4CA2567
:10068C00E0CA33CA25E0CA33FDAEF47F00EE4AFB64
:10069C00EF4DFC8B828C8322AA825302078AF005D1
:1006AC00F07B017C008006EB2BFBEC33FCD5F0F7E8
:1006BC00ADF67E00ED5203EE5204EB4C600975F37F
:1006CC0060EA42F343F30822741855F3FABA1004A3
:0806DC007582002275820122E3
:1000B700E4F521F522E4F523F524E4F525F526E416
:1000C700F527F528E4F529F52AE4F52BF52CE4F5D1
:1000D7002DF52EE4F52FF530E4F531F532E4F5335F
:0700E700F534E4F535F536B0
:1006E400E4F523F524F525F526F527F528F529F570
:1006F4002AE4F52BF52CF52DF52EF52FF530F531F3
:10070400F532E4F533F534F535F53622C020C0E092
:10071400C0F0C082C083C002C003C004C005C006CC
:10072400C007C000C001C0D075D000C2A8E52345F1
:10073400246009852382852483120053C289D2AAA6
:10074400D0D0D001D000D007D006D005D004D0033B
:10075400D002D083D082D0F0D0E0D02032C020C0EC
:10076400E0C0F0C082C083C002C003C004C005C0A2
:1007740006C007C000C001C0D075D000E5254526DD
:100784006009852582852683120053C28DD0D0D07E
:1007940001D000D007D006D005D004D003D002D0B9
:1007A40083D082D0F0D0E0D02032C020C0E0C0F0AE
:1007B400C082C083C002C003C004C005C006C00715
:1007C400C000C001C0D075D000C2AAE5274528608A
:1007D40009852782852883120053C28BD2A8D0D0E2
:1007E400D001D000D007D006D005D004D003D00269
:1007F400D083D082D0F0D0E0D02032C020C0E0C07E
:10080400F0C082C083C002C003C004C005C006C0DB
:1008140007C000C001C0D075D000E529452A600991
:10082400852982852A83120053C28FD0D0D001D06B
:1008340000D007D006D005D004D003D002D083D096
:1008440082D0F0D0E0D02032C020C0E0C0F0C0821E
:10085400C083C002C003C004C005C006C007C000F6
:10086400C001C0D075D000E52B452C6009852B82D2
:10087400852C83120053C298C299D0D0D001D000E5
:10088400D007D006D005D004D003D002D083D082C4
:10089400D0F0D0E0D02032C020C0E0C0F0C082C090
:1008A40083C002C003C004C005C006C007C000C0A6
:1008B40001C0D075D000E52D452E6009852D8285B7
:1008C4002E83120053C2CFC2CED0D0D001D000D0DC
:1008D40007D006D005D004D003D002D083D082D074
:1008E400F0D0E0D02032C020C0E0C0F0C082C0838D
:1008F400C002C003C004C005C006C007C000C001D8
:10090400C0D075D000E52F45306009852F82853031
:1009140083120053C2DFC2D8C2D9D0D0D001D000D4
:10092400D007D006D005D004D003D002D083D08223
:10093400D0F0D0E0D02032C020C0E0C0F0C082C0EF
:1009440083C002C003C004C005C006C007C000C005
:1009540001C0D075D000E53145326009853182850A
:10096400328312005353B27F539BE0D0D0D001D0D6
:1009740000D007D006D005D004D003D002D083D055
:1009840082D0F0D0E0D02032C020C0E0C0F0C082DD
:10099400C083C002C003C004C005C006C007C000B5
:1009A400C001C0D075D000E5334534600985338279
:1009B40085348312005353F3EFD0D0D001D000D04C
:1009C40007D006D005D004D003D002D083D082D083
:1009D400F0D0E0D02032C020C0E0C0F0C082C0839C
:1009E400C002C003C004C005C006C007C000C001E7
:1009F400C0D075D000E53545366009853582853629
:100A040083120053539BEBD0D0D001D000D007D039
:100A140006D005D004D003D002D083D082D0F0D049
:100A2400E0D0203220F71030F6118883A88220F518
:100A340007F6A88375830022F280F7F022C01D8593
:100A4400811DE51D24FDF8868318868218E493A38E
:100A540024DB600C24256005120B2F80F0020B4769
:100A6400D2D5E493A3C083C082B4731486F01886ED
:100A74008318868218120BD56054A3120B2F80F5AD
:100A8400B4630818E618120B2F8043B46417E630D9
:100A9400E74618E6F42401F608E6F43400F6742D6B
:100AA400120B2F8033B4782D868318868218E412B3
:100AB4000B20E583120B1FE583120B20E582120B3A
:100AC4001FE582120B2030D5057430120B2FD08213
:100AD400D083020A51B475F6E6FA18E6F9187C10C8
:100AE4007D27120B0AFF7CE87D03120B0AC4F583F1
:100AF4007C647D00120B0A4283E975F00A84C445C4
:100B0400F0F582EF80A97B000BC3E99CF9EA9DFA1A
:100B140050F61BE92CF9EA3DFAEB22C4540F70039A
:100B240020D51FC2D52490D43440D4C083C082C001
:100B3400F0F582E8C0E01203CBD0E0F8D0F0D08228
:100B4400D08322D01D22E5828537F0A4C582C0F06F
:100B54008538F0A4D0F025F0C5838537F0A425832B
:100B6400F58322AAF0FBE5828537F0A4FCADF0E51D
:100B7400838537F0A42DFDE435F0FEE5828538F059
:100B8400A42DFDE5F03EFEE433FFEA8537F0A42E04
:100B9400FEE5F03FFFE5838538F0A42EFEE5F03F47
:100BA400FFE5828539F0A42EFEE5F03FFFEB8537A3
:100BB400F0A42FFFEA8538F0A42FFFE5838539F0F0
:100BC400A42FFFE582853AF0A42F8EF08D838C82CA
:010BD40022FE
:10008A007800E84400600A790075A000E4F309D812
:10009A00FC7800E84400600C7900900000E4F0A3CA
:0400AA00D8FCD9FAAB
:0F005300E47375813A120BF1E582600302004EEF
:100BD50020F71430F6148883A88220F507E6A88349
:100BE50075830022E280F7E49322E02275820022D9
:00000001FF
